:020000040800F2
:10000000780600208901000891010008930100088A
:100010009501000897010008990100080000000000
:100020000000000000000000000000009B0100082C
:100030009D010008000000009F0100082112000837
:10004000A3010008A3010008A3010008A301000800
:10005000A3010008A3010008A3010008A3010008F0
:10006000A3010008A3010008A3010008A3010008E0
:10007000A3010008A3010008A3010008A3010008D0
:10008000A3010008A3010008A3010008A3010008C0
:10009000A3010008A3010008A30100083904000817
:1000A000A3010008A3010008A3010008A3010008A0
:1000B000A3010008A3010008A3010008A301000890
:1000C000A3010008A3010008A3010008A301000880
:1000D000A3010008A3010008A3010008A301000870
:1000E000A3010008A3010008A301000800F002F822
:1000F00000F03AF80AA090E8000C82448344AAF188
:100100000107DA4501D100F02FF8AFF2090EBAE885
:100110000F0013F0010F18BFFB1A43F0010318473B
:10012000D0190000F0190000103A24BF78C878C137
:10013000FAD8520724BF30C830C144BF04680C60ED
:10014000704700000023002400250026103A28BF35
:1001500078C1FBD8520728BF30C148BF0B60704739
:100160001FB51FBD10B510BD00F031F81146FFF7E7
:10017000F7FF01F08BF800F04FF803B4FFF7F2FF40
:1001800003BC00F057F800000948804709480047C1
:10019000FEE7FEE7FEE7FEE7FEE7FEE7FEE7FEE737
:1001A000FEE7FEE704480549054A064B7047000094
:1001B00025120008ED0000087800002078060020D5
:1001C000780200207802002070477047704775461B
:1001D00000F02CF8AE4605006946534620F00700B3
:1001E000854618B020B5FFF7DDFFBDE820404FF091
:1001F00000064FF000074FF000084FF0000BAC4630
:10020000ACE8C009ACE8C009ACE8C009ACE8C0097A
:1002100021F007018D46704710B50446AFF300800A
:100220002046BDE81040FFF7A8BF00000048704717
:100230001000002001491820ABBEFEE72600020096
:100240007047000080B584B000208DF80F00029048
:100250000120062100F0B6FAFFE702984AF21F11CA
:10026000C0F20701884205D8FFE7FFE70298013096
:100270000290F2E701200621019100F093FA019922
:1002800000200DF10F0200F071FB9DF80F0058B92E
:10029000FFE740F27000C2F20000007818B9FFE7F3
:1002A00000F06AF8FFE7FFE704B080BD80B58AB0D0
:1002B000002106910991084600F084FA0120089077
:1002C0000321079100F07EFA46F20000C4F26A6052
:1002D00000F0B8FE0699089840F27002C2F20002DF
:1002E0001070084600F05EFA0799089800F05AFA74
:1002F000FFE7099801F0FBF9002244F60043C4F23D
:10030000CD0301F013FB98B9FFE70020C4F27A4057
:1003100000F098FE00200121059100F063FA059895
:10032000042100F05FFA099800F57A700990E0E77F
:10033000002002900121049100F034FA0498042175
:1003400000F030FA02980221019100F03BFA049883
:100350000521039100F036FA46F20000C4F26A600B
:1003600000F070FE0199029800F01CFA03990498BD
:1003700000F018FA0AB080BD80B586B00020059064
:10038000049040F27002C2F2000201211170049048
:10039000FFE705984AF21F11C0F2070188421FD8F3
:1003A000FFE700200121039100F01CFA03980421CB
:1003B00000F018FAFFE7049840F63F51C0F203013D
:1003C000884205D8FFE7FFE7049801300490F2E780
:1003D000059840F64051C0F2030108440590D8E763
:1003E000002002900121019100F0DCF90198042124
:1003F00000F0D8F90298022100F0E4F901980521F3
:1004000000F0E0F902980490FFE704984AF21F1107
:10041000C0F20701884205D8FFE7FFE704980130E2
:100420000490F2E70020022100F0BCF90120052130
:1004300000F0B8F906B080BD80B582B040F274001B
:10044000C2F2000000688047019802B080BD000041
:1004500081B08DF8030000208DF802009DF80300A4
:100460000F280FDCFFE79DF80310012000FA01F3CD
:1004700040F20042C4F201021168194311608DF884
:10048000020003E000208DF80200FFE79DF8020063
:1004900001B0704780B582B08DF806008DF8051068
:1004A0009DF806000F2805DCFFE79DF805000328EE
:1004B00004DBFFE700208DF8070037E000208DF80F
:1004C00004009DF8050020B9FFE700208DF8040026
:1004D00017E09DF80500012804D1FFE701208DF801
:1004E00004000DE09DF80500022804D1FFE702207A
:1004F0008DF8040003E000208DF8070016E0FFE708
:10050000FFE79DF806009DF8041000F0D9F98DF87A
:1005100003009DF80300012804D1FFE701208DF8B6
:10052000070003E000208DF80700FFE79DF80700B3
:1005300002B080BD82B08DF807008DF80610002053
:100540008DF805009DF807000F2861DCFFE79DF896
:1005500006000146009140B1FFE7009801281ED037
:10056000FFE70098022834D04DE09DF807100120E5
:1005700000FA01F340F20842C4F201021168194383
:1005800011609DF8071000FA01F340F20C42C4F22A
:1005900001021168994311608DF8050037E09DF85C
:1005A0000710012000FA01F340F20842C4F20102F0
:1005B0001168994311609DF8071000FA01F340F2A9
:1005C0000C42C4F201021168194311608DF8050054
:1005D0001DE09DF80710012000FA01F340F20842E7
:1005E000C4F201021168194311609DF8071000FA66
:1005F00001F340F20C42C4F2010211681943116088
:100600008DF8050003E000208DF80500FFE703E00A
:1006100000208DF80500FFE79DF8050002B0704747
:1006200080B582B000208DF80700FFE79DF8070035
:100630000F2800F3A480FFE79DF8071040F20000A8
:10064000C2F20000405C4009C007002800F083802F
:10065000FFE79DF80710012000FA01F240F2004187
:10066000C4F201010868104308609DF8071040F2C9
:100670000000C2F20000405CC0F3C10001460091DE
:1006800040B1FFE7009801281CD0FFE7009802283E
:1006900030D047E09DF80710012000FA01F340F246
:1006A0000842C4F201021168194311609DF8071055
:1006B00000FA01F240F20C41C4F2010108689043D3
:1006C00008602FE09DF80710012000FA01F340F2C6
:1006D0000842C4F201021168994311609DF80710A5
:1006E00000FA01F240F20C41C4F201010868104323
:1006F000086017E09DF80710012000FA01F340F2AE
:100700000842C4F201021168194311609DF80710F4
:1007100000FA01F240F20C41C4F2010108681043F2
:100720000860FFE79DF8071040F20000C2F20000E9
:10073000405C00F00700013060B1FFE79DF8070062
:1007400040F20001C2F20001095C01F0070100F073
:10075000B7F8FFE70CE09DF80710012000FA01F25E
:1007600040F20041C4F20101086890430860FFE7CD
:10077000FFE79DF8070001308DF8070056E702B04B
:1007800080BD000080B582B08DF807008DF806109E
:100790009DF807009DF80610022200F051F902B002
:1007A00080BD000080B582B08DF807008DF806107E
:1007B0009DF807009DF80610002200F035FA02B0FF
:1007C00080BD000080B582B08DF807008DF806105E
:1007D0009DF807009DF80610012200F025FA02B0EE
:1007E00080BD000080B582B08DF807008DF806103E
:1007F0009DF807009DF8061000F0CCFA02B080BD0D
:1008000080B582B08DF806008DF805108DF80420B3
:100810009DF80400012808D0FFE79DF8040020B1EE
:10082000FFE700208DF8070045E09DF80400E8B9D7
:10083000FFE708208DF804009DF806009DF80510DC
:100840009DF8042000F0FCF820B9FFE700208DF8A7
:10085000070030E09DF806009DF805100122009287
:1008600000F0E2F900988DF8070024E09DF80400FC
:1008700001281CD1FFE708208DF804009DF8060030
:100880009DF805109DF8042000F0DAF820B9FFE784
:1008900000208DF807000EE09DF806009DF8051079
:1008A000002200F0C1F901208DF8070003E00020CC
:1008B0008DF80700FFE79DF8070002B080BD00003B
:1008C00082B08DF806008DF8051000208DF8040028
:1008D0009DF806000F2805DCFFE79DF805000328BA
:1008E00005DBFFE79DF804008DF8070030E09DF878
:1008F000060080088DF803009DF8060000F0030054
:100900008DF806009DF8060081000F2000FA01F323
:100910009DF803200821C4F2010151F822009843F8
:1009200041F822009DF805009DF80620920000FA8B
:1009300002F39DF8032051F82200184341F82200E9
:1009400001208DF804009DF804008DF80700FFE7F2
:100950009DF8070002B0704781B00090009840F207
:100960007401C2F20001086001B0704784B08DF8D4
:100970000E008DF80D10029200208DF807009DF8F2
:100980000D00102805DBFFE79DF807008DF80F002C
:1009900052E00298002846D0FFE79DF80E0001467D
:1009A000009140B1FFE70098012815D0FFE70098BB
:1009B000022822D032E040F60800C4F201000168AB
:1009C0009DF80D20012000FA02F31940D140029A4F
:1009D00011708DF8070025E040F60840C4F20100D0
:1009E00001689DF80D20012000FA02F31940D14062
:1009F000029A11708DF8070014E041F20800C4F269
:100A0000010001689DF80D20012000FA02F3194051
:100A1000D140029A11708DF8070003E000208DF894
:100A20000700FFE703E000208DF80700FFE79DF8CF
:100A300007008DF80F00FFE79DF80F0004B0704726
:100A400082B08DF807008DF806108DF80520002083
:100A50008DF804009DF807000146009148B1FFE7BA
:100A6000009801284BD0FFE70098022800F08D8005
:100A7000D1E09DF8060007281BDCFFE79DF8060083
:100A800081000F2000FA01F240F60001C4F20101DA
:100A90000868904308609DF805009DF806209200C4
:100AA00000FA02F208681043086001208DF8040083
:100AB00024E09DF806000F281BDCFFE79DF80600E8
:100AC00081000F2000FA01F240F60401C4F2010196
:100AD0000868904308609DF805009DF80620920084
:100AE00000FA02F208681043086001208DF8040043
:100AF00003E000208DF80400FFE7FFE78FE09DF89A
:100B0000060007281BDCFFE79DF8060081000F2088
:100B100000FA01F240F60041C4F201010868904376
:100B200008609DF805009DF80620920000FA02F288
:100B300008681043086001208DF8040024E09DF847
:100B400006000F281BDCFFE79DF8060081000F2040
:100B500000FA01F240F60441C4F201010868904332
:100B600008609DF805009DF80620920000FA02F248
:100B700008681043086001208DF8040003E000209D
:100B80008DF80400FFE7FFE749E09DF8060007281D
:100B90001BDCFFE79DF8060081000F2000FA01F240
:100BA00041F20001C4F201010868904308609DF819
:100BB00005009DF80620920000FA02F20868104332
:100BC000086001208DF8040024E09DF806000F283D
:100BD0001BDCFFE79DF8060081000F2000FA01F200
:100BE00041F20401C4F201010868904308609DF8D5
:100BF00005009DF80620920000FA02F208681043F2
:100C0000086001208DF8040003E000208DF8040046
:100C1000FFE7FFE703E000208DF80400FFE79DF801
:100C2000040002B07047000086B08DF816008DF801
:100C300015108DF8142000208DF813009DF8150074
:100C4000102805DBFFE79DF813008DF817009DE0E5
:100C50009DF816000146039140B1FFE70398012873
:100C600031D0FFE7039802285AD086E09DF814009F
:100C70000146029198B1FFE7029801281ED1FFE7D3
:100C80009DF81510012000FA01F340F60C02C4F2A1
:100C900001021168194311608DF8130012E09DF8EC
:100CA0001510012000FA01F340F60C02C4F2010213
:100CB0001168994311608DF8130003E000208DF84E
:100CC0001300FFE75DE09DF814000146019198B123
:100CD000FFE7019801281ED1FFE79DF815100120BC
:100CE00000FA01F340F60C42C4F201021168194304
:100CF00011608DF8130012E09DF81510012000FA24
:100D000001F340F60C42C4F20102116899431160EC
:100D10008DF8130003E000208DF81300FFE730E0AA
:100D20009DF814000146009198B1FFE70098012852
:100D30001ED1FFE79DF81510012000FA01F341F2E2
:100D40000C02C4F201021168194311608DF81300FE
:100D500012E09DF81510012000FA01F341F20C0297
:100D6000C4F201021168994311608DF8130003E089
:100D700000208DF81300FFE703E000208DF813003A
:100D8000FFE79DF813008DF81700FFE79DF81700A7
:100D900006B0704780B582B08DF806008DF805105A
:100DA0009DF806009DF8051001AAFFF7DFFD20B9A8
:100DB000FFE700208DF8070018E09DF804000128E7
:100DC0000AD1FFE79DF806009DF805100022FFF705
:100DD0002BFF8DF8070009E09DF806009DF805102F
:100DE0000122FFF721FF8DF80700FFE79DF80700BC
:100DF00002B080BD81B08DF8030000208DF80200A4
:100E00009DF803001F280DDCFFE79DF8031001206B
:100E100000FA01F14EF20012CEF2000211608DF8DC
:100E200002002DE09DF803003F280FDCFFE79DF84E
:100E30000300A0F12001012000FA01F14EF204129A
:100E4000CEF2000211608DF8020018E09DF8030058
:100E50005F280FDCFFE79DF80300A0F140010120AF
:100E600000FA01F14EF20812CEF2000211608DF884
:100E7000020003E000208DF80200FFE7FFE7FFE734
:100E80009DF8020001B0704780B586B08DF816005D
:100E90008DF815108DF8142000208DF81300032014
:100EA0008DF812008DF811009DF815009DF81210B4
:100EB000884207DCFFE79DF814009DF81110884276
:100EC00005DDFFE79DF813008DF8170042E09DF85F
:100ED0001600442805DBFFE79DF813008DF8170086
:100EE00038E040F20050C0F2FA5000F0F9F89DF8F6
:100EF00014009DF8151040EA81008DF810009DF84F
:100F00001600800803909DF8160000F00300C00052
:100F1000029003984EF20041CEF2000151F82000F9
:100F20000190029AFF2000FA02F20198904301908A
:100F30009DF81000029A00FA02F201981043019005
:100F400001980001039A41F822009DF813008DF8E2
:100F50001700FFE79DF8170006B080BD82B08DF83E
:100F600007008DF8061000208DF805009DF8070099
:100F70000146009140B1FFE70098012813D0FFE738
:100F8000009802281ED02CE09DF80610012000FADF
:100F900001F341F21402C4F2020211681943116014
:100FA0008DF8050021E09DF80610012000FA01F3FC
:100FB00041F21C02C4F202021168194311608DF85B
:100FC000050012E09DF80610012000FA01F341F23D
:100FD0001802C4F202021168194311608DF805006D
:100FE00003E000208DF80500FFE79DF8050002B042
:100FF0007047000081B000208DF8030041F200012D
:10100000C4F20201086840F001000860FFE741F205
:101010000000C4F20200006800F002010020B0EB02
:10102000510F01D1FFE7F2E741F20401C4F20201DE
:101030000020086001208DF803009DF8030001B036
:101040007047000080B584B00290029842F20041DF
:10105000C4F6741100F080FC00F028FC002244F279
:101060000003C4F28F0300F07FF900F013FB01903E
:101070009DF8070058BBFFE701984EF21401CEF22D
:10108000000108604EF21001CEF20001086840F045
:1010900001000860FFE74EF21000CEF20000006889
:1010A000C003002801D4FFE7F5E74EF21001CEF2AD
:1010B0000001086820F0010008604EF21801CEF22D
:1010C00000010020086001208DF80F0003E00020DF
:1010D0008DF80F00FFE79DF80F0004B080BD000001
:1010E00081B0009000984EF60C51CEF200010860DD
:1010F00001B0704780B500F001F880BD84B00020D9
:101100000390029041F20001C4F20201086840F429
:1011100080300860FFE741F20000C4F2020000687E
:1011200000F400300290039801300390FFE7029929
:101130000020019039B9FFE70398B0F5A06018BF0F
:1011400001200190FFE70198C0070028E3D1FFE7E5
:1011500041F20000C4F2020000688003002803D5B9
:10116000FFE70120029002E000200290FFE70298D2
:10117000012851D1FFE742F20001C4F202010868E0
:1011800040F010000860086820F007000860086858
:1011900040F00200086041F20401C4F20201009133
:1011A0000868086008680860086840F480600860A3
:1011B000086820F47C100860086840F4E8100860B3
:1011C00041F20001C4F20201086840F0807008603A
:1011D000FFE741F20000C4F202000068800100282D
:1011E00001D4FFE7F5E741F20401C4F20201086807
:1011F00020F003000860086840F002000860FFE784
:1012000041F20400C4F20200006800F00C0008285B
:1012100001D0FFE7F4E700E0FFE704B0704700000B
:101220007047000080B541F20002C4F2020210686B
:1012300040F00100106041F20401C4F202010868AC
:101240000023CFF6FF031840086010684FF6FF73C5
:10125000CFF6F66318401060106820F4802010600C
:10126000086820F4FE00086041F20801C4F202019F
:101270004FF41F000860FFF73DFF4EF60851CEF215
:1012800000014FF00060086080BD000080B588B0AC
:10129000002005900790FFF7ADFE0221019108465E
:1012A000FFF75CFE019803210291FFF757FE0599B5
:1012B0000198FFF753FE05990846FFF763FA059872
:1012C00001210391FFF75EFA01990598FFF75AFA99
:1012D00002990398FFF756FA03980421FFF752FA90
:1012E00003980521FFF74EFA039806210491FFF7B2
:1012F00049FA039A04990598FFF782FA0599049828
:10130000FFF7DEFAFFF78CF904980599FFF7C2F8AA
:1013100005990498FFF70EF90498FFF799F840F241
:101320004520C0F60000FFF717FB059A172006902E
:101330001146FFF7A9FD0698FFF75CFDFFE740F2B5
:101340007001C2F2000100200870FEF7AFFFF6E75F
:10135000491058BFC1F140415B1058BFC3F1404331
:101360008B42EFF3008070472DE9C04130B4DFF8C5
:10137000A4C23CEA111418BF3CEA131400F0ED803B
:101380001CEA111481EA030544EAD57418BF1CEA6B
:10139000131500F0C880A4EB050404F17F7404F574
:1013A00000344FF0004545EAC12145EAC32341EA34
:1013B000505143EA52534FEAC0204FEAC2229942A9
:1013C00008BF904200F09D804FEA13650FF244166B
:1013D000765D4FEA134506FB05F7C7F1807706FBFC
:1013E00007F74FEAD737A7FB03687642A7FB06CE7D
:1013F000C8F5803838BFA8F1010807FB08E6A6FB4E
:10140000028C4FF0000EE6FB03CEDCF1000CCEF1B7
:10141000004E38BFAEF1010EA6FB0C584FF000078E
:10142000E6FB0E87A1FB08C6A0FB07CE16EB0E0657
:101430004FF0000545F10005E1FB076515F1E04EB1
:101440007EBFA4F580345FEA46066D4116F1800741
:1014500045F100054FEA172747EA05674FEA1525CA
:101460004FEA0666A6F1DE46B6F1805F20D938461F
:1014700005EBC47124F0010C01EB0C11BCF1FE6F03
:1014800002D8F0BCBDE8008124425CBF01F5801E9B
:101490009EEAC47F02D4F0BCBDE80081244200F182
:1014A0003980A1F1C041F0BCBDE8004100F0F8B9BD
:1014B0004FEAD02040EA41504FEAD1214FEAD222F0
:1014C00042EA43524FEAD323A7FB028607FB036697
:1014D00005FB02661EEA0E0F58BFA6EB0056B6EBE0
:1014E00000564FEA520E4EEAC37E18EB0E0E56EB34
:1014F000530EBCD518EB02085E417F1C55F1000568
:10150000B5E74FF480154FF000074FF000064FF09D
:101510000008ACE701F1C04101F000414FF00000CC
:10152000F0BCBDE800810CEA131511EA0C1F00D0D5
:101530000CE013EA0C1F00F026804FF0000081EA57
:10154000030101F00041F0BCBDE80081F0BCBDE842
:10155000004181EA030100F0A3B9F0BCBDE80041FD
:1015600070B500F04FF900BF097EFC3E00F007B8EF
:101570004FF0000081EA030101F00041704781EA69
:10158000030100F08DB9F0BCBDE8004122494FF0E5
:1015900000007047FFFDFBF9F7F5F4F2F0EEEDEB1C
:1015A000E9E8E6E4E3E1E0DEDDDBDAD8D7D5D4D361
:1015B000D1D0CFCDCCCBCAC8C7C6C5C4C2C1C0BFAD
:1015C000BEBDBCBBBAB9B8B7B6B5B4B3B2B1B0AFB3
:1015D000AEADACABAAA9A8A8A7A6A5A4A3A3A2A197
:1015E000A09F9F9E9D9C9C9B9A9999989797969552
:1015F00095949393929191908F8F8E8E8D8C8C8BEE
:101600008B8A898988888787868585848483838275
:10161000828181800000FF070000F87F51EA030CFF
:1016200017D41CF5801F58BFBCF5801F00F1068041
:10163000994218BF704708BF9042704707D711F50D
:10164000801F58BF13F5801F19D4994270478942F3
:1016500070471CF5801F08D5BCF5801FF7D58B425D
:1016600018BF704708BF824270474FF4001C1CEB44
:10167000410F38BF1CEB430F01D28B42704770B54E
:1016800000F0C0F8922449004FF000514FF0805311
:10169000FFF75EBE4FEA1153A3F58063D3F11E033B
:1016A000A8BFD3F1200C08DB4FF0004242EAC12270
:1016B00052EA505232FA03F0704709420BD4102B11
:1016C000C4BF0020704703F5787CBCF1FF3F05D014
:1016D0004FF0FF3070474FF00000704770B500F0DA
:1016E00091F800BF4992248000207047F0E7B0FADB
:1016F00080F310FA03F10AD0C3F11D0303F58063F0
:101700004FEA03524FEA415002EBD12170474FF0AC
:101710000000704751EA030C17D41CF5801F58BF16
:10172000BCF5801F00F10680994218BF704708BFC2
:101730009042704707D711F5801F58BF13F5801FDF
:1017400019D499427047894270471CF5801F08D50B
:10175000BCF5801FF7D58B4218BF704708BF824287
:1017600070474FF4001C1CEB410F38BF1CEB430FBC
:1017700001D28B42704770B500F044F892244900C2
:101780004FF080514FF00053FFF7E2BD51EA030CD8
:1017900017D41CF5801F58BFBCF5801F00F10680D0
:1017A000994218BF704708BF9042704707D711F59C
:1017B000801F58BF13F5801F19D499427047894282
:1017C00070471CF5801F08D5BCF5801FF7D58B42EC
:1017D00018BF704708BF824270474FF4001C1CEBD3
:1017E000410F38BF1CEB430F01D28B42704770B5DD
:1017F00000F008F8922449004FF000514FF0805358
:10180000FFF7A6BD0EF1020E2EF0030E5EF8046B7C
:10181000364205D4012A43EB030515F5001F12D803
:10182000012841EB010C1CF5001F0CD80ED14FEA2A
:10183000D17C0CEB4C0C0CF1020C15F5001F08BF11
:101840004CEBD37C04E04FF0080C01E04FEAD37C72
:101850000CEB4C0526FA05F606F00706B6F1040C6B
:1018600006D20EEB860CBDE870404CF0010C6047D0
:10187000DFE80CF0090B02024FF00041A1F5002156
:101880004FF0000070BD19461046012851EB0104CD
:1018900018BFD4F5001484BF002001F0004170BDD2
:1018A0000808A0F500114FEA3101704743004FEAE4
:1018B000D30C4FEA3C0C43401FBF40070CF1605172
:1018C00013F0FE4F70471CF0006F03D10CF0004185
:1018D000002070470CF0004343EA507040EACC000F
:1018E00010B500F0BAF800BF000000924FEA000106
:1018F000FFF7D6BF4FF00041A1F500214FF00000E7
:10190000704710B5FFF78AFE0CBF0120002010BD04
:1019100010B5FFF783FE14BF0120002010BD10B5E5
:10192000FFF7F8FE8CBF0120002010BD10B5FFF7B7
:10193000F1FE2CBF0120002010BD10B5FFF726FFDF
:1019400094BF0120002010BD10B5FFF71FFF34BF6A
:101950000120002010BD00004FF47F0C1CEAD012C3
:101960001EBF1CEAD11392EA0C0F93EA0C0F00F091
:10197000478090EA010F48BF42F480724FF0004C5C
:101980004CEA00204CEA012102EB0302A0FB011308
:10199000A2F50002002918BF43F001035B0028BF35
:1019A0004FEA330342EB22425FEA132C4CEBC25066
:1019B0002EBFBCEB436FB2F57C0F70474FEA036C50
:1019C000BCF1004F08BF20F00100B2F57C0F38BF1A
:1019D00070470BD582F0FF0212F5803FC8BF7047F9
:1019E00000F1C040D8BF00F00040704700F5000C87
:1019F0005FEA4C0C48BF7047B0F1C04000F073B8CC
:101A00000CEAD11390EA010F48BF42F4807262459C
:101A100038BF634504D280EA010000F000407047FF
:101A200010B500F01AF800BF8900013E00F007B8B9
:101A300000F009B85FEA410C5FEA1C6C08D080EA4C
:101A4000010000F050B85FEA400C5FEA1C6CF6D170
:101A50004FF00040A0F5800070470EF1020E2EF00E
:101A6000030E5EF8044B244204D44FEA4102B2F163
:101A70007F4F11D84FEA4003B3F17F4F0CD80ED1FE
:101A80004FEAD07C0CEB4C0C0CF1020CB2F17F4F06
:101A900008BF4CEBD17C04E04FF0080C01E04FEAAA
:101AA000D17C0CEB4C0324FA03F404F00704B4F1EA
:101AB000040C06D20EEB840CBDE810404CF0010C77
:101AC0006047DFE80CF0070802024FF00040A0F585
:101AD000800010BD0846420018BFD2F1807288BF56
:101AE00000F0004010BDFF2141EAD050C005704712
:101AF000101B000800000020100000002801000852
:101B0000201B0008100000206806000044010008A7
:101B1000370F17171717171717171717171717173D
:040000050800018965
:00000001FF
